{
  "contractName": "Cashout",
  "abi": [
    {
      "constant": false,
      "inputs": [
        {
          "name": "etherAmount",
          "type": "uint256"
        }
      ],
      "name": "setAllowance",
      "outputs": [],
      "payable": false,
      "stateMutability": "nonpayable",
      "type": "function"
    },
    {
      "constant": true,
      "inputs": [],
      "name": "owner",
      "outputs": [
        {
          "name": "",
          "type": "address"
        }
      ],
      "payable": false,
      "stateMutability": "view",
      "type": "function"
    },
    {
      "constant": false,
      "inputs": [],
      "name": "deposit",
      "outputs": [],
      "payable": true,
      "stateMutability": "payable",
      "type": "function"
    },
    {
      "constant": false,
      "inputs": [],
      "name": "claimAll",
      "outputs": [],
      "payable": false,
      "stateMutability": "nonpayable",
      "type": "function"
    },
    {
      "constant": false,
      "inputs": [
        {
          "name": "etherAmount",
          "type": "uint256"
        }
      ],
      "name": "requestCashout",
      "outputs": [],
      "payable": false,
      "stateMutability": "nonpayable",
      "type": "function"
    },
    {
      "inputs": [],
      "payable": false,
      "stateMutability": "nonpayable",
      "type": "constructor"
    }
  ],
  "bytecode": "0x606060405268056bc75e2d63100000600155341561001c57600080fd5b336000806101000a81548173ffffffffffffffffffffffffffffffffffffffff021916908373ffffffffffffffffffffffffffffffffffffffff1602179055506103f58061006b6000396000f30060606040526004361061006d576000357c0100000000000000000000000000000000000000000000000000000000900463ffffffff1680633ba93f26146100725780638da5cb5b14610095578063d0e30db0146100ea578063d1058e59146100f4578063d1ab130014610109575b600080fd5b341561007d57600080fd5b610093600480803590602001909190505061012c565b005b34156100a057600080fd5b6100a861019b565b604051808273ffffffffffffffffffffffffffffffffffffffff1673ffffffffffffffffffffffffffffffffffffffff16815260200191505060405180910390f35b6100f26101c0565b005b34156100ff57600080fd5b6101076101c2565b005b341561011457600080fd5b61012a6004808035906020019091905050610297565b005b6000809054906101000a900473ffffffffffffffffffffffffffffffffffffffff1673ffffffffffffffffffffffffffffffffffffffff163373ffffffffffffffffffffffffffffffffffffffff1614151561018757600080fd5b670de0b6b3a7640000810260018190555050565b6000809054906101000a900473ffffffffffffffffffffffffffffffffffffffff1681565b565b6000809054906101000a900473ffffffffffffffffffffffffffffffffffffffff1673ffffffffffffffffffffffffffffffffffffffff163373ffffffffffffffffffffffffffffffffffffffff1614151561021d57600080fd5b6000809054906101000a900473ffffffffffffffffffffffffffffffffffffffff1673ffffffffffffffffffffffffffffffffffffffff166108fc3073ffffffffffffffffffffffffffffffffffffffff16319081150290604051600060405180830381858888f19350505050151561029557600080fd5b565b60003382600154670de0b6b3a76400008202600260008573ffffffffffffffffffffffffffffffffffffffff1673ffffffffffffffffffffffffffffffffffffffff1681526020019081526020016000205401111515156102f757600080fd5b83670de0b6b3a764000081023073ffffffffffffffffffffffffffffffffffffffff16311015151561032857600080fd5b670de0b6b3a76400008502935083600260003373ffffffffffffffffffffffffffffffffffffffff1673ffffffffffffffffffffffffffffffffffffffff168152602001908152602001600020600082825401925050819055503373ffffffffffffffffffffffffffffffffffffffff166108fc859081150290604051600060405180830381858888f1935050505015156103c257600080fd5b50505050505600a165627a7a72305820dfccb30c96cb7ef493f8bf94f019c25fc0af8e017e41ecec7ef227f58db9e8940029",
  "source": "pragma solidity ^0.4.18;\ncontract Cashout {\n    address public owner;\n    \n    uint allowance = 100 ether;\n    \n    mapping (address => uint) cashoutTable;\n    \n    modifier isOwner {\n        require (msg.sender == owner);\n        _;\n    }\n    \n    modifier hasBalance(uint etherAmount) {\n        require(this.balance >= etherAmount * 1 ether);\n        _;\n    }\n        \n    modifier hasAllowance(address user, uint etherAmount) {\n        require(cashoutTable[user] + etherAmount * 1 ether <= allowance);\n        _;\n    }\n    \n    function Cashout() public {\n        owner = msg.sender;\n    }\n    \n    function requestCashout(uint etherAmount) public hasAllowance(msg.sender, etherAmount) hasBalance(etherAmount) {\n        uint weiAmount = etherAmount * 1 ether;\n        cashoutTable[msg.sender] += weiAmount;\n        msg.sender.transfer(weiAmount);\n    }\n    \n    function claimAll() public isOwner {\n        owner.transfer(this.balance);\n    }\n    \n    function setAllowance(uint etherAmount) public isOwner {\n        allowance = etherAmount * 1 ether;\n    }\n    \n    function deposit() public payable {}\n}\n",
  "sourcePath": "/Users/kru/Degordian/DPP/solidity-testing/contracts/Cashout.sol",
  "compiler": {
    "name": "solc",
    "version": "0.4.18+commit.9cf6e910.Emscripten.clang"
  },
  "schemaVersion": "1.0.1",
  "updatedAt": "2017-11-24T12:23:04.150Z"
}